:020000001F28B7
:100008007E1480318B1E09280A2812280B1D0D2802
:100018000E2812288231B62280311D288B1D152802
:1000280016281D280B1C19281A281D288231CB22B6
:1000380080317E10090020288231F6228031CE00DE
:100048008231F7228031CF008231F8228031D0000E
:100058008231F9228031D1003830840000308500A7
:1000680016308231EA2280317E102000612920007A
:10007800B000300886008701403FA000413FA10042
:10008800423FA200433FA300230822042104200486
:10009800031D4F2850286F28FF30A000FF30A10013
:1000A800FF30A200FF30A3008231C12280317008E6
:1000B8002000A0077108A13D7208A23D7308A33D66
:1000C8003008860087012008C03F2108C13F220868
:1000D800C23F2308C33F8231C12280317308200008
:1000E800AF007208AE007108AD007008AC003008AF
:1000F80086008701403FA000413FA100423FA20087
:10010800433FA30023082F02031D942822082E0230
:10011800031D942821082D02031D942820082C0271
:10012800031897289828C028300886008701403F80
:10013800A000413FA100423FA200433FA3002C087A
:10014800A4002D08A5002E08A6002F08A700200847
:10015800A4022108A53B2208A63B2308A73BFF30A1
:100168002407A800FF30253DA900FF30263DAA003E
:10017800FF30273DAB00E328300886008701403F69
:10018800A000413FA100423FA200433FA3002C082A
:10019800A4002D08A5002E08A6002F08A7002008F7
:1001A800A4022108A53B2208A63B2308A73B270851
:1001B800AB002608AA002508A9002408A8002B08D7
:1001C800F7002A08F6002908F5002808F4000800B6
:1001D800F9007903031DF128F228F7287408F800BC
:1001E8007308F700FD2873080F3EF7000030743DD0
:1001F800F8001030FA007808F1007708F000823132
:10020800AA2280317903031D0A290B2940293F308E
:1002180023001406031D112912291F297208F5004D
:10022800F60175089300760894009416141282312A
:10023800DC22803159290130F7070030F83D0230BF
:100248007A0203182829292952291430950074089C
:1002580092007308910082319E2280317208F50065
:10026800F60175082300930076089400941614127A
:100278008231DC22803152292300941E44294529E9
:100288004E293F30140603194A294B294E291308D1
:10029800F20059290130F7020030F83B0130FA0228
:1002A8007A08031D58295929FF287208F500F60114
:1002B8007508F2007608F300080082318422813143
:1002C8008B170B172000B601823162228131003A68
:1002D800031D6F2971290130722900302000B700F1
:1002E8008131B921813182314E228131013A031D98
:1002F8007E297F29942920003603031D8429852916
:1003080094293708031D89298A298D29B701B70A35
:100318008E29B701B60137088231D42281319F294D
:1003280082314E228131003A031D9B299C299F2945
:100338002000B601B60A0A30F8000030F90046304D
:100348008131F7218131013A031DAB29AC29742988
:1003580020003708F2008030F3000730F400013045
:100368008031EC20813174291F2820004503031DAA
:10037800BE29BF29D8293F083E043D043C04031D7B
:10038800C629C729CF290030CD000030CC00003065
:10039800CB000030CA000130BC070030BD3D003042
:1003A800BE3D0030BF3DC501FA30F8000030F9000D
:1003B8004A308131F7218131013A031DE429E529C9
:1003C800F62920003F08BB003E08BA003D08B900E6
:1003D8003C08B8000030BF000030BE000030BD004F
:1003E8000030BC0008002000B500350880313B20F3
:1003F800813177082000B4007608B3007508B20090
:100408007408B1007808FA007908FB00FC01FD01C6
:100418007D083402031D1A2A7C083302031D1A2A98
:100428007B083202031D1A2A7A083102031C1D2A8E
:100438001E2A282A3508860087010030C03FC13FA0
:10044800C23FC33F0130292A0030080022008C0136
:10045800093021008C00023023008C0024008C011C
:100468002100951725008C01373026008C003F307D
:1004780027008C00043022009D002700131012145E
:100488001110FE30F0000230F1008231F02282318A
:100498008B15080020003B08031D5E2A3A08031D3F
:1004A8005E2A3908031D5E2A0F303802031C5D2AB4
:1004B8005E2A602A0130612A00300800F20180308B
:1004C800F3000730F40000308031EC2082317208EC
:1004D800FB007B088231D42282317B08080020008F
:1004E800C501C50A5208530403197B2A7C2A812AAC
:1004F80053088A0052080A008231270013100800A6
:1005080082312A2282318231E32282318231FA22F7
:100518008231823191228231080021001508C039C8
:10052800133895000630200095000630D4000B11D2
:100538008B160800553023009600AA3096009514B3
:100548009518A72AA82AA42A1511080071082300BB
:10055800920070089100013095001518B42AB52A48
:10056800B12A080001302000C0070030C13D00302A
:10057800C23D0030C33D0B11080020004308F300C2
:100588004208F2004108F1004008F0000800270086
:10059800131CCF2AD02AD32A823173228231080031
:1005A800F000700C2200031C8C1003188C14080037
:1005B80004302300950082319E22823108007A306F
:1005C800210099009801220096010800640080012A
:1005D8000131890BEB2A003471082000D300700820
:1005E800D20008000A340034FA34003416302100EE
:0605F80097000800080056
:020000040001F9
:08000000FF3FFF3FFF3FFF3F00
:04000E00A43FFF1FED
:00000001FF
